:020000040800F2
:1000000018140020D5000008FD140008251400086D
:1000100000000000000000000000000000000000E0
:10002000000000000000000000000000471500086C
:1000300000000000000000004515000849150008F8
:100040000501000800000000050100080501000886
:100050000501000805010008050100080501000868
:100060000000000005010008050100080501000866
:100070000501000805010008050100080000000056
:100080003116000800000000000000000501000813
:100090000000000005010008050100080501000836
:1000A0000000000005010008000000009D1A000883
:1000B0000501000800000000000000000501000824
:1000C0000348854600F0CEF800480047B9200008F4
:1000D000181400200C4880F308880C480168090EA9
:1000E0000B4A914205D10B480B4901600B480C4962
:1000F00001600C4880470C480047FEE7FEE7FEE73A
:10010000FEE7FEE7FEE700001814002004000000F0
:100110001F00000018100240010000000000014014
:1001200000000000CD150008C100000830B50B46E6
:10013000014600202022012409E00D46D5409D42C1
:1001400005D31D469540491B254695404019154647
:10015000521E002DF1DC30BD03460B439B0703D03C
:1001600009E008C9121F08C0042AFAD203E00B787C
:100170000370401C491C521EF9D27047D2B201E0F4
:100180000270401C491EFBD270470022F6E710B5F2
:1001900013460A4604461946FFF7F0FF204610BDF5
:1001A000421E5378521C002BFBD10B781370491C54
:1001B000521C002BF9D17047421C0178401C0029C9
:1001C000FBD1801A704703460A780270401C491C14
:1001D000002AF9D11846704770B5064601F08AFC2E
:1001E000046805460A220021304600F003F82C601E
:1001F00070BD0000F7B5009C0F4600262578641CF2
:10020000002D05D000F040F80068405DC007F5D132
:100210002B2D02D02D2D18D0641E39462046029A6F
:1002200000F036F8002F04D03968A14201D10099BE
:1002300039607105022400290BDA4042002803DDF1
:1002400001F058FC0460A007FEBD012080020643B7
:10025000E3E70028F8DA01F04DFC04600048FEBD39
:10026000FFFFFF7F064C0125064E05E0E36807CC43
:100270002B430C3C98471034B442F7D3FFF724FFCC
:100280006047000880470008004870475C47000846
:10029000F7B582B0029C00272078641C15460197B0
:1002A000302802D0002D15D015E020780127641CDD
:1002B000782804D0582802D0002D09D00BE0002D5A
:1002C00001D0102D07D1002710252078641C02E0F2
:1002D000082500E00A250026009610E00099012775
:1002E00069430818020C294680B2714300908E18A9
:1002F0003804864201D3012001902078641C2946ED
:1003000000F019F80028E9DA0398002805D0002F3A
:1003100001D0641E00E0029C04600198002806D011
:1003200001F0E8FB02210160C81E05B0F0BD009994
:1003300030040843F9E73A2800D230382023024637
:100340009A43412A01D310463738884201D300200E
:10035000C0437047F0B5052A01D20220F0BD0E78E7
:1003600006704B7843708C78CD1C891884702039C6
:100370004560CF7F4772897F01727E2E01D17F2F2A
:1003800001D00320F0BDD21E934201D00420F0BD65
:100390005C4000229B1E02E0AE5C7440521C934203
:1003A000FADCA14202D004720520F0BD0020F0BDAD
:1003B000F0B500238C461E4610E000256146455FDF
:1003C000CF5C6C1C816804804F5500210424415E81
:1003D000045FA14200DB06805B1C9BB29342ECD31E
:1003E000F0BD0000F8B500238DE001249C40A44638
:1003F00022407DD04C68022C01D0122C0CD1DC089C
:10040000A40027183C6A5D07ED0E0F26AE40B443EA
:100410000E69AE4026433E6205685E000324B44088
:100420000F79A543BF07BF0FB7402F4307604D6843
:10043000012D05D0022D03D0112D01D0122D0ED18A
:100440008568CF68A543B7402F43876047686546F6
:10045000AF430D79ED06ED0F9D403D434560C56806
:10046000A5438C68B4402C43C4604C68E40049D573
:10047000284CA56901263543A561A4699D0834402F
:100480000094254CAD002F19BC689D072E0F0F2539
:10049000B540AC430925ED06A84201D100250FE087
:1004A0001E4DA84201D101250AE01D4DA84201D1EF
:1004B000022505E01B4DA84201D1032500E00525DA
:1004C000B5402543BD60184C25684E689543F6033A
:1004D00000D51543256065684E689543B60300D581
:1004E00015436560A5684E689543F60202D500E0A5
:1004F00008E01543A560E5684E689543B60200D54F
:100500001543E5605B1C0A681446DC4000D06CE7CC
:10051000F8BD000000100240000001400004004847
:1005200000080048000C00480004014042694A40AD
:1005300042617047002A01D0816170478162704733
:1005400001480068704700000000002070B50400FA
:100550000CD02068C168C943C90709D1C168C94323
:10056000890705D4C068C043400701D4012070BD8D
:10057000607C002803D12074204600F03DF8022062
:10058000607421681A480860206841686268C90878
:10059000C9001143416020688168A268090B090302
:1005A000114381601348E168814203D121680969E0
:1005B000814218D0FFF7C4FF7D260546F60007E00C
:1005C000FFF7BEFF401BB04202D90320607470BD2C
:1005D0002068C0680028F3D120680169E268090B2F
:1005E00009031143016101206074002070BD000007
:1005F00055550000FF0F000070470000F8B5044695
:10060000007C012808D00126267402206074FFF7C0
:1006100097FF054600270CE00220F8BDFFF790FF8A
:10062000411B7D20C000814203D9032060742774E0
:10063000F8BD2068C068C0438007EFD52168034833
:100640000860667427740020F8BD0000AAAA0000A4
:10065000F8B50446007C012812D001262674022039
:1006600060741649E068884202D121681448086025
:10067000216814480860FFF763FF054600270CE077
:100680000220F8BDFFF75CFF411B7D20C0008142C6
:1006900003D9032060742774F8BD2068C168C9437A
:1006A000C90707D1C168C943890703D4C068C043DB
:1006B0004007E7D5667427740020F8BDFF0F0000DF
:1006C000AAAA0000CCCC000002480168491C0160C5
:1006D000704700000000002010B506480168102295
:1006E00011430160002000F007F800F017F8002027
:1006F00010BD00000020024010B5044600F04AF989
:100700007D21C900FFF712FD00F04EFB00222146BB
:10071000501E00F029F8002010BD000008B50C485C
:10072000816901221143816180691040002200909B
:100730001146501F00F018F800221146901E00F0DC
:1007400013F800221146501E00F00EF808BD0000FC
:1007500000100240C106C90E01208840014908600E
:100760007047000000E100E010B500F0C9FE10BDC8
:10077000F8B505460068394CC00352D5E06900263B
:10078000C00007D4E16920040143E161E16901404F
:100790000126009132480168C90510D4016882150C
:1007A00011430160FFF7CCFE074604E0FFF7C8FEE7
:1007B000C01B642824D82A480068C005F6D5206AE2
:1007C00003273F02384020D06968394081421CD05D
:1007D000206A226AB843012109040A432262226A7C
:1007E0008A4322622062C0070FD0FFF7A9FE009063
:1007F00008E0FFF7A5FE0099411A1A48814201D985
:100800000320F8BD206A8007F3D5206A6968B843E1
:1008100008432062002E04D0E169012000078143D3
:10082000E1612878C00705D0206BA96880088000A6
:10083000084320632878800605D5206B1021884363
:10084000E968084320632868800305D5206B802170
:1008500088432969084320630020F8BD0010024046
:100860000070004088130000F8B5054644480E4665
:100870000068C007C00FB0420AD241480168490869
:100880004900314301600068C007C00FB0425CD12D
:1008900028783C4C800705D56068F0218843A9681A
:1008A000084360602878C0073FD06868012813D0EB
:1008B0002168022813D08907002946DA616889086F
:1008C000890001436160FFF73BFE69680746012923
:1008D0000DD0022917D024E021688903ECE78901B3
:1008E000EAE7FFF72DFEC11B2748814217D8606851
:1008F0000007800F0128F4D117E0FFF721FEC11B8C
:10090000214881420BD860680007800F0228F4D18B
:100910000BE0FFF715FEC11B1B48814201D90320E4
:10092000F8BD60680007800FF3D115480168C9075A
:10093000C90FB1420BD90168490849003143016030
:100940000068C007C00FB04201D00120F8BD287870
:10095000400706D56068072109028843E968084313
:10096000606000F02DF86168084A0906090F515CC3
:10097000C840074908600020FFF7BEFE0020F8BD10
:10098000002002400010024088130000FC250008EF
:1009900004000020014800687047000004000020A7
:1009A0000448054900684968044A4905490F515CF3
:1009B000C840704704000020001002400C260008C8
:1009C00010B511A30FCB88B06C460FC412A30FCB88
:1009D0000FC415494A680C20134603401348042BE2
:1009E0000FD0082B0DD193021B0F6C46E45CC96A33
:1009F00004AB0907090FD203595C920FFFF796FB6E
:100A0000604308B010BD0000020304050607080992
:100A10000A0B0C0D0E0F1010010203040506070847
:100A2000090A0B0C0D0E0F100010024000127A0084
:100A3000FEB504460078D24DC00749D0686800076B
:100A4000800F012820D068680007800F022804D199
:100A50006868C003800F022816D001206268000475
:100A6000012A18D08100002A01D0052A17D02A684F
:100A700082432A60286888432860606800281BD069
:100A8000FFF75EFD064613E02868800320D5606806
:100A9000002876D01CE0296801432960EDE72A6828
:100AA0000A432A60F7E7FFF74BFD801B642869D8EB
:100AB00028688003F7D50BE0FFF742FD064604E007
:100AC000FFF73EFD801B6428F1D828688003F7D427
:100AD00020780126800700283DDA68680007800F2B
:100AE00013D068680007800F022804D16868C0032B
:100AF000800F012809D0E068002828681CD0304306
:100B00002860FFF71DFD07460BE0286880070BD51E
:100B1000E068012835D107E0FFF712FDC01B02286D
:100B2000C5D828688007F7D52868F8218843216947
:100B3000C900084328600EE0400840002860FFF725
:100B4000FFFC074604E0FFF7FBFCC01B0228AED801
:100B500028688007F7D42078000723D5E0690028AB
:100B6000686A10D030436862FFF7EAFC074604E089
:100B7000FFF7E6FCC01B022899D8686A8007F7D502
:100B800010E0FAE0A4E0400840006862FFF7D8FCFB
:100B9000074604E0FFF7D4FCC01B022887D8686A28
:100BA0008007F7D4207804274007002860DA002067
:100BB0000190E869C00008D4E969B8060143E96119
:100BC000E96901400120009101906E480168C90562
:100BD00011D40168821511430160FFF7B1FC009048
:100BE00005E0FFF7ADFC0099401A642870D865480D
:100BF0000068C005F5D5A06801280AD0002801D0FA
:100C0000052810D0286A400840002862286AB843A6
:100C100001E0286A30432862A068002812D0FFF75C
:100C20008FFC00900AE0286A38432862F1E7FFF75A
:100C300087FC0099411A5448814249D8286A8007A4
:100C4000F5D50DE0FFF77CFC009006E0FFF778FC9F
:100C50000099411A4C4881423AD8286A8007F5D455
:100C60000198002804D0E969012000078143E96167
:100C70002078C00635D5606901280CD0401D686B0E
:100C800023D038436863686B400840006863FFF70F
:100C900057FC064622E0686B38436863686B304354
:100CA0006863FFF74DFC064604E0FFF749FC801B34
:100CB00002285BD8686B8007F7D5686BF8218843FA
:100CC000A169C900084368630BE0B8436863F4E7AF
:100CD0004CE0FFF735FC801B022847D8686B800783
:100CE000F7D4206A002846D069680907890F0229CD
:100CF00043D0012636060228286805D0B043286074
:100D0000FFF71EFC044633E0B0432860FFF718FCF1
:100D1000074604E0FFF714FCC01B022826D8286809
:100D20008001F7D4E86AE16A000900010843E8623B
:100D3000616AA06A084369687B22D2039143084331
:100D40006860286830432860FFF7FAFB044604E037
:100D5000FFF7F6FB001B022808D828688001F7D5AA
:100D600009E0FFF7EDFB001B022801D90320FEBDBF
:100D700028688001F5D40020FEBD0120FEBD0000E2
:100D80000010024000700040881300000422044953
:100D90000428086902D09043086170471043FBE7BC
:100DA00000E000E070470000094910B5401E88428D
:100DB00001D9012010BD074C60610321081F00F01C
:100DC0009FFB0020A06107202061002010BD0000D3
:100DD000FFFFFF0000E000E010B5FFF7E3FF10BDEC
:100DE0007047704770B502462032137E012B1BD02E
:100DF0000123137602245476046865687026B5438F
:100E00006560046865680E68354365600468A568B8
:100E10008026B543A5600068846849680C438460F7
:100E200053760020107670BD022070BD70B50400AE
:100E300005D025462035687E002802D006E0012036
:100E400070BD00202876204600F00AF8022068765F
:100E5000211D206800F0F4FB01206876002070BDA1
:100E600008B50068094988420FD10948C2690221C2
:100E70000A43C261C0690022084000901146102058
:100E8000FFF772FC1020FFF765FC08BD000400406E
:100E9000001002400268D36801210B43D360006850
:100EA00002680A43026000207047F8B50546044610
:100EB0002035287E012817D001272F76022068765A
:100EC000226890687726FF23B0431B029843906006
:100ED0000868502837D00EDC202857D006DC0028C0
:100EE0004ED0102840D14EE00220F8BD302850D01E
:100EF000402839D13CE060282DD0702817D001223D
:100F00001203801A0ED090422ED1CB684A688968AD
:100F1000206800F0CFFB2068816801229203114312
:100F2000816021E020688168C908C900F8E7CB68C2
:100F30004A688968206800F0BDFB21688868B04372
:100F40003043886010E0CA684968206800F0C5FB3B
:100F50005021206806E0CA684968206800F0CEFB8E
:100F60006021206800F0B1FB6F7600202876F8BD84
:100F7000CA684968206800F0B0FB40212068F1E7AA
:100F800000212068EEE710212068EBE7202120688F
:100F9000E8E730212068E5E7704770B5044600684F
:100FA00001690025C9438907002915DBC168C943C8
:100FB000890711D4E91E016101202076206880692B
:100FC0008007204602D0FFF7E7FF04E000F096F824
:100FD000204600F094F8257620680169C943490746
:100FE00017D4C168C943490713D40421C943016117
:100FF00002202076206880698005800F204602D07C
:10100000FFF7CAFF04E000F079F8204600F077F817
:10101000257620680169C943090716D4C168C94308
:10102000090712D40821C9430161042020762068F1
:10103000C0698007204602D0FFF7AEFF04E000F051
:101040005DF8204600F05BF8257620680169C94309
:10105000C90617D4C168C943C90613D41021C943AE
:101060000161082020762068C0698005800F204635
:1010700002D0FFF791FF04E000F040F8204600F0B6
:101080003EF8257620680169C943C90708D1C168BF
:10109000C943C90704D1891E0161204600F030F818
:1010A00020680169C943090609D4C168C943090612
:1010B00005D48021C94301612046FFF791FE2068D5
:1010C0000169C943490609D4C168C943490605D421
:1010D0004021C9430161204600F02EF820680169D3
:1010E000C943890609D4C168C943890605D42021AA
:1010F000C94301612046FFF774FE70BD7047704719
:1011000010B50B4900680968884210D10948018868
:101110004A1C0280FF222D32914206D90021018013
:1011200009200421C006FFF701FA01F057F910BDAC
:1011300068000020080000207047704710B5044682
:101140000068C169C90707D00168C90504D5012134
:101150000162E06E0843E0662068C16902228B07E5
:101160000421002B06DA8368DB0703D00262E06EFD
:101170000843E0662068C3695B0706D58368DB0720
:1011800003D00162E06E1043E0662068C169090780
:1011900007D58168C90704D008210162E06E0843C1
:1011A000E0662068C169890605D50068800602D519
:1011B000204600F066FB2068C169090605D5006875
:1011C000000602D5204600F035FC2068C1694906BA
:1011D00005D50068400602D5204600F045FBE06ECC
:1011E000002807D0202120466030417281722046BD
:1011F000FFF7A3FF10BD70B5040005D0254660358C
:10120000687A002802D006E0012070BD0020287214
:10121000204600F027F824206872206801684908F9
:1012200049000160204600F06DFB0128EDD0606AA6
:10123000002802D0204600F0A9FA20684168012267
:10124000D202914341602068816808229143816005
:1012500020680168012211430160204600F0FBFA7A
:1012600070BD000000B50068124987B088421FD1E8
:1012700011488269012189030A438261806908401B
:1012800005900320400200900220019001210320DC
:1012900003900291049109206946C006FFF7A2F865
:1012A000002211461B20FFF75FFA1B20FFF752FABE
:1012B00007B000BD003801400010024070B5034681
:1012C00060339C7A202C49D100290BD0002A09D008
:1012D000012584682D03AC4206D10669002E03D196
:1012E000CE0701D0012070BD1E7A012E36D0012616
:1012F0001E724165014640310A834A83FF22AC4297
:1013000004D10469002C12D1154A10E07F25002C6D
:1013100008D00122120794420AD10269002A04D09F
:101320003F2204E00469002C01D08D8300E08A8311
:101330000021C16622229A7202681468FF250135D5
:101340002C431460026894683443946019720068F6
:101350000168202211430160002070BD022070BD91
:10136000FF01000010B5074A0168914209D1064CFF
:10137000A27B2169FFF7A2FFA27B20462169FFF72C
:1013800017F810BD003801402400002030B5034696
:1013900060335C7A202C23D100290BD0002A09D09D
:1013A000012584682D03AC4206D10469002C03D1C9
:1013B000CC0701D0012030BD1C7A012C10D0C164B3
:1013C000014640310A824A820021C16621225A72B6
:1013D000197200680168802211430160002030BD4D
:1013E000022030BD70B5064600680C49884211D114
:1013F0000B4C0025607B00280DD1A27B2046216983
:1014000000F08FF900B2002805DD82B23046216974
:10141000FFF7BCFF70BD257370BD000000380140B0
:1014200010000020FEE7000010B5104900248C6079
:10143000CC600D4A0C610A6048608C61CC610C6222
:101440000C204C6248610846FFF7D5FE002800D00A
:1014500001240748827B01690448FFF72FFF002819
:1014600000D00124204610BD003801404C0A002065
:1014700024000020F0B51D4887B04269012189058C
:101480000A43426142690A400592426949110A438E
:10149000426142690A400592426949000A43426139
:1014A0004069134C08400927FF0605900022214699
:1014B0003846FFF73FF80F4E002231460E48FFF73F
:1014C00039F80094002401250195029469463846B4
:1014D0000394FEF787FF029469460748009601953A
:1014E0000394FEF77FFF07B0F0BD0000001002403C
:1014F000EC80000078F00000000400487047000015
:101500008307FF22DB0E9A408907090E99400028C5
:101510000BDA0007000F0838830808489B001818EA
:10152000C36993430B43C3617047830804489B001E
:101530001B181868904308431860704700ED00E0DE
:1015400000E400E07047704710B5FFF7BDF8FFF703
:1015500043FC10BD70B596B0012409200090200412
:101560000990000101940394022600250A90089630
:1015700007940B956846FFF75BFA002800D0FEE75A
:1015800007200C900E9501210D960F950CA8FFF7E2
:101590006BF9002800D0FEE710A812951094FFF711
:1015A000E7F8002800D0FEE7FFF7F4F97D21C90035
:1015B000FEF7BCFDFFF7F8FB0420FFF7E7FB002276
:1015C0001146501EFFF7D0F816B070BD15480168DF
:1015D0000122114301604168134A114041600168D2
:1015E000124A114001600168012292049143016096
:1015F00041683F22120491434160C16A090909010F
:10160000C162016BFF22943291430163016B80221E
:1016100011430163416B4908490041630021816026
:1016200070470000001002400CB8FF08FFFFF6FEF4
:1016300010B50248FFF7B1FC10BD000068000020A3
:1016400070B50268164B174D984201D0A84204D1DC
:10165000144670264A68B4432243134C134E9842F2
:1016600008D0A84206D0124DA84203D0A04201D013
:10167000B04204D103252D02AA43CD682A4302605B
:101680008A68C2620A688262984203D0A04201D08E
:10169000B04201D1096901630121416170BD0000BF
:1016A000002C01400004004000440140004801407B
:1016B0000020004030B58468FF252D021B02134333
:1016C000AC430B432343836030BD826870239A434D
:1016D0000A4307210A438260704730B5036A046AEF
:1016E0006408640004628469F025AC43120122435B
:1016F0000A24A3430B438261036230BD30B5036A01
:101700001024A34303628469036A0F252D03120387
:10171000AC432243A024A34309011943826101621F
:1017200030BDF0B500231D4613E000260224865F7D
:10173000045FA6420FD0671C86684780345DCC5496
:1017400002240426045F865FB44200DB45805B1CF4
:101750009BB29342E9D31846F0BD10B50446007A17
:10176000002808D000F0D4FE2168401A6168884241
:1017700001D300202072207A10BD70B50D460446BA
:1017800000F0C6FE21C40120207070BD10B5818C10
:10179000C90707D001684A6801235B049A43836A3A
:1017A0001A434A60818C890707D501684A6801237A
:1017B0001B049A43C36A1A434A60818C490707D5C0
:1017C00001684A6801239B049A43036B1A434A60E9
:1017D000818C090707D501684A680123DB039A4316
:1017E000436B1A434A60818CC90607D50268916829
:1017F00001231B039943836B19439160818C8906F4
:1018000007D501688A6801235B039A43C36B1A43B7
:101810008A60818C490612D503685A68012109053E
:10182000046C8A4322435A60026C8A4207D10268E0
:10183000516803235B059943436C19435160818CC4
:10184000090607D501684A680123DB04806C9A43C6
:1018500002434A6010BD0021C166202260304272FE
:10186000827201720846704710B501680A68402309
:101870009A430A60202269210A54FFF7B3FD002031
:1018800010BD70B50246403203466033948B9D7A9A
:101890000168222D05D08869082210438861022042
:1018A00070BD012685683603B54202D10569002D59
:1018B0000CD08D8C416D25404C1C44650D70518BB6
:1018C000491E0904090C518308D019E0898C456D23
:1018D00021402980416D891C4165F0E70268146848
:1018E00020218C43146002681468CD00AC4314605E
:1018F000026894686408640094609972FFF732FD8E
:10190000002070BDF8B504462369A268E5691A4352
:10191000636910202B43002125681A432B680E466B
:101920003E4F3B4013432B6023685A6803252D0329
:10193000AA43E5682A435A60236AA26925681A43C4
:10194000AB680B273F02BB431343AB60344A2568A7
:10195000954210D1334A126B9207920F0ED0012A92
:1019600005D0022A05D0032A09D1022007E004206D
:1019700005E0082003E02C4A954200D10020012216
:10198000E369D203934224D100280CD002280DD061
:10199000042813D0082817D001260A0912010807C5
:1019A000400F10432FE0FEF7FBFF09E061681F4A7C
:1019B00048088018FEF7BAFB81B2EEE7FFF700F89F
:1019C000616840004A08F4E761680122480812048F
:1019D000EFE7002808D0022809D004280BD00828F7
:1019E00014D001263046F8BDFEF7DAFF05E0616845
:1019F0000F4A48080CE0FEF7E3FF61684A088018C8
:101A0000FEF794FB80B22168C860EBE76168480884
:101A10008018FEF78BFB80B2E860E3E7F369FFEF25
:101A20000038014000100240004400400024F4004F
:101A300000127A006921095C212901D00220704737
:101A400002464032518A002912D0012381681B03CB
:101A5000994202D10169002915D0C16C4B1CC364A5
:101A6000006809780185508A401E50820020704726
:101A700001680A6880239A430A600068016840226E
:101A800011430160F2E7C16C03680988C905C90DFB
:101A90001985C16C891CC164E5E7000010B50248D6
:101AA000FFF74CFB10BD00004C0A002006480188DF
:101AB0004288891A09B2002902DA0422825E00E013
:101AC0000022501800B27047240000200FB410B557
:101AD00004A9074B02AA039800F020F8044602A9C3
:101AE000002000F0C3F9204610BC08BC04B0184721
:101AF0006D1E0008004870475000002002E008C832
:101B0000121F08C1002AFAD170477047002001E077
:101B100001C1121F002AFBD170470000FFB58FB032
:101B20000546002606E025280AD0129A119990470A
:101B30006D1C761C28780028F5D1304613B0F0BD16
:101B4000002402940121B54A009400E004436D1C76
:101B50002B780846203B98401042F7D128782A2855
:101B60000ED00222287801463039092916D8029968
:101B70000A2359433039401814436D1C0290F1E791
:101B8000109802C802911090002904DA0120400345
:101B9000044348420290022004436D1C28782E28FA
:101BA00017D10420044368786D1C2A280CD11098A2
:101BB0006D1C02C8009110900BE000990A2251435D
:101BC000303940186D1C00902878014630390929B9
:101BD000F3D928786C2810D006DC4C281AD0682855
:101BE0000ED06A2817D104E0742813D07A2812D1B5
:101BF00010E00120400504430CE00121090501E04B
:101C0000032109050C436978814203D101200005B5
:101C100024186D1C6D1C2878692874D006DC0028F7
:101C20008BD0632827D0642806D16CE06E2808D0BA
:101C300073282CD0752878D0129A11999047761C69
:101C40005FE06002400F022809D003280DD004286D
:101C5000109801680DD00E60001D109051E0109892
:101C6000F21701680E604A60F6E7109801680E806E
:101C7000F2E70E70F0E710986A4601781173001DC4
:101C800010900020507303A80190012005E01098E7
:101C900002C8019110900020C04361070CD50027B5
:101CA00000E07F1C00998F420FDA8742F9DB01992F
:101CB000C95D0029F5D108E0002700E07F1C8742BC
:101CC000FCDB0199C95D0029F8D102982146C01BAF
:101CD0000290129B119A00F0B3F88019C61907E020
:101CE000019801990078491C0191129A1199904725
:101CF0007F1EF5D22146129B119A029800F090F8AF
:101D000086196D1C16E70A200190109901C91091DF
:101D10006102490F032900D100B2042900D140B269
:101D2000002803DA40422D2103E00DE0210504D50F
:101D30002B216A461173012103E0E10711D0202114
:101D4000F7E70CAF0C9114E00A200190109901C93B
:101D500010916102490F032900D180B2042900D1FA
:101D6000C0B20021EDE70199FEF7E0F930317F1EA6
:101D700039700028F7D104A8C01B203001906007FB
:101D800004D5012000048443009801E00120009064
:101D90000199884201DD401A00E0002041180090BE
:101DA0000C9809180298401A0290E00306D42146C4
:101DB000129B119A029800F043F8861900200D90AA
:101DC00008E003A9085C129A119990470D98401CED
:101DD000761C0D900C998842F3DBE0030CD521466C
:101DE000129B119A029800F02BF8861904E0129ABF
:101DF000302011999047761C0099481E00900029C8
:101E0000F5DC05E03878129A7F1C11999047761C12
:101E10000199481E01900029F4DC6BE709280100B4
:101E2000F8B5044600251E461746880404D405E08C
:101E300039462020B0476D1C641EF9D52846F8BDF0
:101E4000FFB50446002581B01E46C80301D53027E2
:101E500000E02027880404D505E038460399B04700
:101E60006D1C641EF9D5284605B0F0BD0A68531CE8
:101E70000B60107070470000014948607047000017
:101E80003C0000207CB5002506462C460AE0305D6B
:101E90006A4601A900F012F8684600882818641CF8
:101EA00085B2E4B23046FEF787F9A042EFD8C02DE4
:101EB00001D900207CBD01207CBD000070B5203818
:101EC0000023C4B2602C01D9002070BD64200880BA
:101ED0000A480CE0C5182D79EE086D0700D00125E1
:101EE00075190E886D0175195B1C0D809BB2A3429C
:101EF000F0D3C01800791080012070BD14260008AE
:101F00007FB53548FFF729FC334C0025083C0028F5
:101F100000D125703220E070304E4DE0684600F070
:101F2000BBF82078002804D0012810D0022843D123
:101F30001BE0684600787E283ED101212170307078
:101F400061707D2109012448FFF717FC34E06846E1
:101F50000178881ED12801D325702DE00220207041
:101F600071706070491CA17026E068460178607845
:101F70003154401C6070A078401E0006000EA07016
:101F80001AD1257070781549C01CC2B201A8FEF79D
:101F9000E1F9002819D0052819D0042819D0022108
:101FA0006068002808D068464079029A10182038E6
:101FB0008577626802989047FFF778FD002803D084
:101FC000E078411EE170A9D27FBD0021E8E704213D
:101FD000E6E70121E4E70000440000203C0F002078
:101FE00070B50546002904D000230A461946184654
:101FF00049E0FEF7E1F8024629462648FEF7ACF82C
:102000002878244C303820706878C82130386070C7
:10201000A01CFEF7BAF82846FEF7CEF8421FA91C0E
:10202000A01CFEF799F82846FEF7C6F84019C01E16
:10203000FEF7D2F82546C0356881A01CFEF7BCF833
:102040002078012804D0022802D06B89617805E04D
:102050006178002904D0012902D06B89032212E0A3
:10206000A01CFFF70FFF002802D1617800290DD0D6
:1020700020786278401EC0B2A11C00F005FA6B897E
:1020800061782078002200F077FA70BD6B892078A3
:10209000E4E70000A400002010B501460122054835
:1020A000FFF73FFB00B2002801D0002010BD012047
:1020B00010BD00002400002086B0FEF70DFBFFF7E6
:1020C00049FAFFF7D7F926492648002412C02649C5
:1020D000416001600838FEF739FA002800D0FEE7B9
:1020E0002048224914300160302184604160204939
:1020F0000461C160FEF79AFE002800D0FEE70120CF
:1021000000030090174869461430FEF7CEFE002801
:1021100000D0FEE71348049404A914300594FEF798
:1021200061FE002800D0FEE74B20C001FFF77CF9DC
:102130000C481430FEF7AEFE0A48FEF789FA00207C
:1021400000F034F9012000F031F90A48FFF794FE5D
:102150000448FEF753FAFFF7D3FE00F09FF8F7E7C5
:102160000030004054000020FF0F00000004004039
:1021700026020000E11F0008F0B584468E46D00814
:10218000510700D001214018C7B2002300242DE0E0
:1021900018461A4978434118704600190A5C02250E
:1021A00050092840D6090643D00804252840064394
:1021B0005008082528400643500140210840D50119
:1021C0000543D00020210840054350001022104054
:1021D00005430B49604648430A4935434018990076
:1021E00040180019C030641C0573A4B2BC42CFD3A0
:1021F0005B1C9BB2202BC9D3F0BD00001426000845
:102200006E040000700100200121C9030920C006EE
:102210008161816181627047F0B500230824251A2D
:102220000CE0CC5C8440E7B25C1CCF54944204D2F6
:10223000CE187678EE403E43CE54A3B29342F0D30C
:10224000F0BD0000F3B5019A08239F1A124A114904
:102250000024504346181920604335182946FF31A1
:102260004F3118220198FFF7D7FFFF356135A100E4
:102270007118CC22525C6879FA40104368710422CC
:10228000CC310198FFF7C8FF641CA4B2202CE2D324
:10229000FCBD0000700100206E040000FEB5404847
:1022A0000027007800286BD100263E4835463E4C7A
:1022B0004543605DC00764D0002060552A19029232
:1022C000C03201929072019A5072304600F06EF85E
:1022D000019A507A029A0119681C085CFF3269461B
:1022E0004D32FFF7EBFD029A6846FF32413201881A
:1022F00092893046FFF740FF2B482C180194FF3499
:1023000041340294019CC03401213046FFF79AFF0A
:10231000A17A491CC9B2A172029A9289914221D133
:102320000021A1720198401CFDF746FF0146607A2A
:10233000401CC0B2607281422DD8E17A1A4800294F
:1023400025D000216172691C405C019A6946FF3208
:102350004D32FFF7B3FD0298828968460188304606
:10236000FFF70AFF7F1CBFB2C02F02D0E07A01281E
:10237000CAD1761CF6B2022E97D3094820210170EB
:10238000FEBD2819C030C07A0028F2D0B4E76946F3
:102390002020019ADBE704494118681C085CD4E757
:1023A0000A0000206E0400007001002070B5094989
:1023B0000024484308494518192060432818FF3075
:1023C00018214F30FDF7E1FE641CE4B2202CF3D35A
:1023D00070BD00006E04000070010020F0B5124DC9
:1023E000287800281FD0401EC0B2287000F022F8C4
:1023F00000240E4E2D277F0128781921484380198B
:102400000019C119FF304130097F807B00F060F86E
:10241000641CE4B2182CEFD3FFF7F6FE0120044948
:10242000000388618862F0BD0A000020700100206E
:1024300000040048092110B5C3078022C906002BFB
:1024400001D08A6100E08A6283070822002B01DA4A
:102450008A6100E08A6243072022002B01DA8A6148
:1024600000E08A6204071022064B002C01DA9A6110
:1024700000E09A62C2064020002A01DA886110BD9D
:10248000886210BD0004004870B50E4601460C4835
:10249000154641430B48012242540C18601C31463A
:1024A000FDF791FE012D08D13046FDF785FEC228CB
:1024B00003D2601C04A1FDF773FEC034E57270BD49
:1024C0006E04000070010020202020202000000069
:1024D000F0B50126072376030B4A082494620125F0
:1024E0009D40054201D0966100E096620D42074D85
:1024F00001D0956100E09562946194615B1EDBB24E
:10250000082BEBD3F0BD0000000400480080000061
:1025100010B5FEF715F810BD73B50D4608681049E3
:10252000884216D10F4C0126667332466946204612
:10253000FDF73EFF207B00280ED1A27B20462169BB
:10254000FFF7EFF882B228462169FEF71FFF002847
:1025500001D001207CBD2673002060737CBD00008B
:10256000003801401000002010B50249FFF7D4FFE9
:1025700010BD00004C0A0020FFB5C3B00C461F463A
:102580001646FC2104A8FDF700FE439803976F460A
:1025900051C700250123082214A104A8FFF796FAC9
:1025A000002404AE03E0305D4540641CE4B204A89E
:1025B000FDF702FEA042F6D804A8FDF7FDFD355454
:1025C0007E20FFF7D1FF002404E0305DFFF7CCFF51
:1025D000641CE4B204A8FDF7EFFD401CA042F4D84F
:1025E0007F20FFF7C1FF47B0F0BD000025632563E2
:1025F0002575257525752530337500000000000010
:1026000000000000010203040607080900000000A2
:1026100001020304002020600A0B0C12121D160692
:102620000B0B0D13090B0909120A121212121212C6
:102630001212090913131312201616181816141A59
:1026400018091117121B181A161A18161518162021
:10265000151514090A090E130B11121112110B1280
:1026600012070710071B121112120B1109120F1972
:102670000F0F100B080B13190000000000000000E2
:10268000000000000000000000000000000000004A
:10269000000000000000000000000000000000003A
:1026A000000000000000000000000000000000002A
:1026B00000000000000000000000700070007000CA
:1026C000700070007000700070007000700070008A
:1026D00070002000200020002000200020002000AA
:1026E000000000007000700070000000000000009A
:1026F000000000000000000000008E038E038E0327
:102700008E038E038E038E03040100000000000080
:1027100000000000000000000000000000000000B9
:1027200000000000000000000000000000000000A9
:102730000000000000000000000000C0E100C0E157
:1027400000E07000E07000E07000E07000FFFF014A
:10275000FFFF01FFFF01703800703800703800384B
:102760001C00381C00FFFF01FFFF01FFFF011C0ED2
:10277000001C0E001C0E001C0E001C0E000E07009C
:102780000E07000000000000000000000000000034
:102790000000000000000000000300C00F00F03F38
:1027A00000F87F003873001CE3001CE3001C0300EA
:1027B0001C03003C0300F80300F00F00C03F0000C2
:1027C0007F0000FB0000E30100C30100C3010EC352
:1027D000010EC3011CE3013CF300F87F00F03F0051
:1027E000C01F000003000003000003000000000001
:1027F000000000000000000000000000E0033800BE
:10280000F0071C00380E1C001C1C0E001C1C0E00C7
:102810001C1C0E001C1C07001C1C07001C9C030039
:102820001C9C030038CE0100F0C7F900E0E3FC0176
:1028300000E08E03007007070070070700380707E5
:1028400000380707001C0707001C0707000E0707D2
:10285000000E8E030007FC010007F80000000000D6
:102860000000000000000000000000000000000068
:102870000000000000000000000000801F00C03FBA
:1028800000E07F00F0F00070E00070E00070E00019
:10289000E07000E07900C03F00800F00E00700F02A
:1028A0000E003C1C021C1C0F0E38070EF0070EE039
:1028B000030EE0011EE0033CF807F87F0FF03F0E27
:1028C000C00F040000000000000000000000000035
:1028D0000000000000000000000E0E0E0E0E0E0E96
:1028E00004000000000000000000000000000000E4
:1028F0000000000000000000000000038001C00193
:10290000C00060007000700030003800380018000F
:102910001C001C001C001C001C001C001C001C00D7
:102920001C00380038003800300070007000E000F3
:10293000C000C00180010003000006000C001C0064
:1029400018003000700070006000E000E000C0007F
:10295000C001C001C001C001C001C001C001C0016F
:10296000C001E000E000E00060007000700038008E
:1029700018001C000C0006000000600060006000F1
:102980006E07FE07F801F000F8019C030801000043
:102990000000000000000000000000000000000037
:1029A0000000000000000000000000000000000027
:1029B0000000000000000000000000000000000017
:1029C00000000000000000000000000700000700F9
:1029D000000700000700000700000700FCFF01FCE3
:1029E000FF01FCFF010007000007000007000007CF
:1029F00000000700000700000000000000000000C9
:102A000000000000000000000000000000000000C6
:102A100000000000000000000000000000000000B6
:102A200000000000000000000000000000000000A6
:102A30000000000000000000000000000000000096
:102A4000000000003800380038003000300030004E
:102A5000100018000000000000000000000000004E
:102A60000000000000000000000000000000000066
:102A7000000000000000FE03FE03FE030000000053
:102A80000000000000000000000000000000000046
:102A90000000000000000000000000000000000036
:102AA0000000000000000000000000000000000026
:102AB0000000000000000000000000000000000016
:102AC000000000003800380038000000000000005E
:102AD0000000000000000000000080018001C00034
:102AE000C000C00060006000600060003000300086
:102AF00030001800180018001C000C000C000C001E
:102B000006000600060007000300000000000000A9
:102B10000000000000000000000000C00F00F03FB7
:102B200000F87F007878001CF0001CE0001CE0003A
:102B30000EC0010EC0010EC0010EC0010EC0010E7C
:102B4000C0010EC0010EC0010EC0010EC0011CE08C
:102B5000001CE0001CE000787800F87F00F03F00E7
:102B6000C00F000000000000000000000000000096
:102B7000000000000000000000008001C001E00132
:102B8000F001F801FC01DE01C601C201C001C00173
:102B9000C001C001C001C001C001C001C001C0012D
:102BA000C001C001C001C001C00100000000000060
:102BB0000000000000000000000000C00F00F03F17
:102BC00000F87F003CF0001CE0010EC0010EC001C7
:102BD00000C00100C00100E00000E0000070000043
:102BE0003800001C00000E00000700800300E00118
:102BF00000F000003800001C0000FCFF01FEFF0197
:102C0000FEFF0100000000000000000000000000C6
:102C10000000000000000000000000C00F00F03FB6
:102C200000F87F003C78001EE0000EE00000E000AD
:102C300000F000007800803F00803F00807F0000AF
:102C4000F00000E00100C00100C00100C0010EC0A2
:102C5000010EC0011CE0003CF000F87F00F03F00D6
:102C6000C00F000000000000000000000000000095
:102C70000000000000000000000000006000007084
:102C800000007800007C00007E00007E00007700DD
:102C9000807300C07100E07000E070007070003858
:102CA00070001C70000E7000FEFF03FEFF03FEFFAD
:102CB00003007000007000007000007000007000E1
:102CC0000070000000000000000000000000000094
:102CD0000000000000000000000000F8FF00F8FF06
:102CE00000F8FF001C00001C00001C00001C00007D
:102CF0001C0000DC0F00EE3F00FE7F001EF0000015
:102D0000E00000C00100C00100C00100C0010EC011
:102D1000010EC0011CE0003CF000F87F00F03F0015
:102D2000C00F0000000000000000000000000000D4
:102D30000000000000000000000000801F00E07F95
:102D400000F0FF0078F0003CE0011CC0011C000016
:102D50000E00008E1F00EE3F00FE7F007EF0001E82
:102D6000E0001EC0010EC0010EC0010EC0010CC06B
:102D7000011CC0011CE00078F000F87F00E03F007B
:102D8000C00F000000000000000000000000000074
:102D90000000000000000000000000FEFF01FEFF38
:102DA00001FEFF0100C0000060000070000038005C
:102DB000001800001C00000E00000E0000070000BC
:102DC0000700800300800300800300C00100C001F1
:102DD00000C00100C00100E00000E00000E00000D1
:102DE000E000000000000000000000000000000003
:102DF0000000000000000000000000C00F00F03FD5
:102E000000F87F003C70001CE0001CE0001CE000AB
:102E10001CE000387000F03F00E01F00F87F003C2D
:102E2000F0001CE0000EC0010EC0010EC0010EC07B
:102E3000010EC0011CE0003CF000F87F00F03F00F4
:102E4000C00F0000000000000000000000000000B3
:102E50000000000000000000000000C00F00F01F94
:102E600000F87F007C70001CE0001EC0000EC00156
:102E70000EC0010EC0010EC0010EE0011CE0013CBD
:102E8000F801F8FF01F0DF01C0C70100C00100E058
:102E9000000EE0001EF0003C7800FC3F00F81F0030
:102EA000E00700000000000000000000000000003B
:102EB0000000000000000000000000000000000012
:102EC000000000000000380038003800000000005A
:102ED00000000000000000000000000000000000F2
:102EE000000000003800380038000000000000003A
:102EF00000000000000000000000000000000000D2
:102F00000000000000003800380038000000000019
:102F100000000000000000000000000000000000B1
:102F20000000000038003800380030003000300069
:102F30001000180000000000000000000000000069
:102F40000000000000000000000000000100E0019F
:102F500000F80100FF00C01F00F80300FC00001C87
:102F60000000FC0000F80300C01F0000FF0000F894
:102F70000100E0010000010000000000000000006E
:102F80000000000000000000000000000000000041
:102F90000000000000000000000000000000000031
:102FA0000000000000000000000000000000000021
:102FB000FCFF01FCFF01FCFF01000000000000001D
:102FC0000000000000FCFF01FCFF01FCFF0100000D
:102FD00000000000000000000000000000000000F1
:102FE00000000000000000000000000000000000E1
:102FF00000000000000000000000000000000000D1
:10300000000000000000000000000400003C000080
:10301000FC0000F80700C01F0000FE0000F80100DF
:10302000C00100F80100FE00C01F00F80700FC000E
:10303000003C000004000000000000000000000050
:103040000000000000000000000000000000000080
:103050000000000000000000000000C00F00F03F72
:1030600000F87F007CF0001CE0010EC0010EC001E2
:1030700000C00100C00100E00000F0000078000086
:103080003C00001E00000E000007000007000007C3
:10309000000007000000000000000007000007001B
:1030A0000007000000000000000000000000000019
:1030B00000000000000000000000000000E03F00F1
:1030C00000FCFF0000FEFF03803FE007C007800F09
:1030D000C003001EE0E1E11CF0F8E73870FC7F3827
:1030E000783E7E78380E7C70380F78701C077870C8
:1030F0009C0738709C0338709C0338709C033C38E4
:103100009C031C389C031E1C9C071E1E3C8F1F0F1B
:1031100038FFFF0778FEFD037078F800F00000E04C
:10312000E0010078C007003C803F801F00FFFF0FD8
:1031300000FCFF0300E07F00000000001F00001FF4
:1031400000001F00803B00803B00803B00C07100FE
:10315000C07100C07100E0E000E0E00070C00170EC
:10316000C00170C001F8FF03F8FF03F8FF031C0063
:10317000071C00071C00070E000E0E000E0E000EAE
:1031800007001C000000000000000000000000001C
:103190000000000000000000000000F87F00F8FFC1
:1031A00001F8FF0338C003388007380007380007EC
:1031B00038000738800338C003F8FF01F8FF01F832
:1031C000FF0338800738000F38000E38000E380033
:1031D0000E38000E38000F388007F8FF07F8FF039D
:1031E000F8FF0000000000000000000000000000E8
:1031F000000000000000000000000000FE0080FF52
:1032000001C0FF07E08107F0000F78001E38001CA6
:103210003800041C00001C00001C00001C00001CE6
:1032200000001C00001C00001C000838003838009A
:103230003C78001CF0001EE0830FE0FF0780FF03D6
:1032400000FE000000000000000000000000000080
:103250000000000000000000000000F8FF00F8FF80
:1032600003F8FF0738800F38000F38001E38001CA5
:1032700038003C38003838003838003838003838E2
:10328000003838003838003838003838001C38002A
:103290001C38001E38000E38800FF8FF07F8FF03B7
:1032A000F87F0000000000000000000000000000A7
:1032B0000000000000000000000000F8FF07F8FF19
:1032C00007F8FF0738000038000038000038000019
:1032D000380000380000380000F8FF03F8FF03F85A
:1032E000FF033800003800003800003800003800C4
:1032F00000380000380000380000F8FF0FF8FF0F1A
:10330000F8FF0F00000000000000000000000000B7
:103310000000000000000000000000F8FF03F8FFBC
:1033200003F8FF03380000380000380000380000C0
:10333000380000380000380000F8FF00F8FF00F8FF
:10334000FF00380000380000380000380000380066
:103350000038000038000038000038000038000055
:103360003800000000000000000000000000000025
:1033700000000000000000000000000000FC03004E
:1033800080FF0F00C0FF1F00E0033E00F000780048
:103390007000700038007000380060003C000000D1
:1033A0001C0000001C0000001C0000001CC0FF00EE
:1033B0001CC0FF001CC0FF001C00E0003800E00043
:1033C0003800E0007000E000F000F000E007FE00D0
:1033D000C0FF3F0000FF1F0000FC030000000000D2
:1033E00000000000000000000000000000000000DD
:1033F000000000000000000000000038001C380041
:103400001C38001C38001C38001C38001C38001CFC
:1034100038001C38001C38001CF8FF1FF8FF1FF88C
:10342000FF1F38001C38001C38001C38001C3800F6
:103430001C38001C38001C38001C38001C38001CCC
:1034400038001C0000000000000000000000000028
:1034500000000000000000000000380038003800C4
:10346000380038003800380038003800380038009C
:10347000380038003800380038003800380038008C
:103480003800380038003800380000000000000024
:1034900000000000000000000000000038000038BC
:1034A0000000380000380000380000380000380004
:1034B00000380000380000380000380000380000F4
:1034C00038000038000038000038000038000E389E
:1034D000000E38001E3C001E1E00FC1F00F80F00EE
:1034E000F0030000000000000000000000000000E9
:1034F000000000000000000000000038003C380020
:103500001E38000F38800738C00338E00138F0005B
:10351000387800383C00381E00380F00B81F00F81B
:103520003F00F83900F8780078F00038E00138C042
:103530000338800738000738000E38001E38003C7A
:1035400038007800000000000000000000000000CB
:1035500000000000000000000000003800003800FB
:103560000038000038000038000038000038000043
:1035700038000038000038000038000038000038FB
:103580000000380000380000380000380000380023
:1035900000380000380000380000F8FF01F8FF0193
:1035A000F8FF010000000000000000000000000023
:1035B0000000000000000000000000007C00F0019E
:1035C000FC00F001FC00F801FC00F801FC01F8012E
:1035D000DC01DC01DC01DC01DC01DC019C03CE014F
:1035E0009C03CE019C03CE011C07C7011C07C70129
:1035F0001C07C7011C8EC3011C8EC3011C8EC30196
:103600001CDCC1011CDCC1011CDCC1011CF8C001B7
:103610001CF8C0011CF8C0011C70C00100000000B3
:10362000000000000000000000000000000000009A
:10363000000000000000000000000078001C78007E
:103640001CF8001CF8001CF8011CB8031CB8031C73
:1036500038071C38071C380E1C381C1C381C1C383A
:10366000381C38381C38701C38E01C38E01C38C056
:103670001D38C01D38801F38001F38001F38001E3D
:1036800038001E00000000000000000000000000E4
:1036900000000000000000000000000000FE00002C
:1036A00080FF0700C0FF0F00E0031F00F0003C0098
:1036B0007800380038007000380070001C00E0000E
:1036C0001C00E0001C00E0001C00E0001C00E0000A
:1036D0001C00E0001C00E0001C00E000380070004E
:1036E0003800700070007800F0003C00E0031F001C
:1036F000C0FF0F0080FF070000FC0000000000007A
:1037000000000000000000000000000000000000B9
:103710000000000000000000000000F8FF00F8FFBB
:1037200003F8FF0738800738000F38000E38000E06
:1037300038000E38000E38000F388007F8FF07F801
:10374000FF03F8FF003800003800003800003800A0
:103750000038000038000038000038000038000051
:103760003800000000000000000000000000000021
:1037700000000000000000000000000000FE00004B
:1037800080FF0300C0FF0700E0830F00F0001E0071
:1037900078003C0038003800380038001C00700009
:1037A0001C0070001C0070001C0070001C007000E9
:1037B0001C0070001C0070001C00700038003800F5
:1037C0003860380078E01D00F0C01F00E0830F0073
:1037D000C0FF1F0080FF3F0000FEF80000007000E7
:1037E00000000000000000000000000000000000D9
:1037F0000000000000000000000000F8FF01F8FFDA
:1038000007F8FF0F38000F38001E38001C38001C66
:1038100038001C38001E38000FF8FF0FF8FF07F8BB
:10382000FF0138700038E00038E00138C00338800C
:103830000338800738000F38000E38001E38001C8F
:1038400038003C0000000000000000000000000004
:103850000000000000000000000000803F00E0FFCA
:1038600000F0FF01F0C00378800738000738000738
:10387000380000780000F00100E01F00C0FF0000E9
:10388000FE0300E00700800700000F1C000E1C0074
:103890000E3C000E78000FF88007F0FF03E0FF01F8
:1038A000007F000000000000000000000000000099
:1038B0000000000000000000000000FEFF0FFEFFFF
:1038C0000FFEFF0F000E00000E00000E00000E00A5
:1038D000000E00000E00000E00000E00000E0000A2
:1038E0000E00000E00000E00000E00000E00000E84
:1038F00000000E00000E00000E00000E00000E0082
:10390000000E0000000000000000000000000000A9
:10391000000000000000000000000038001C38001B
:103920001C38001C38001C38001C38001C38001CD7
:1039300038001C38001C38001C38001C38001C38AB
:10394000001C38001C38001C38001C38001C3800D3
:103950001C70000EF0000EF0810FE0FF07C0FF03A7
:1039600000FF000000000000000000000000000058
:1039700000000000000000000000000E00381E00E3
:103980003C1C001C1C001C3C001E38000E38000EA5
:10399000700007700007700007E08003E08003E01C
:1039A0008003C0C101C0C101C0E30180E30080E326
:1039B0000080F700007700007700007F00003E00E5
:1039C000003E0000000000000000000000000000B9
:1039D00000000000000000000000000007C007C059
:1039E00007C007C00EC007E00EE00EE00EE00EE0DC
:1039F0000EE00EE01C700C701C701C701C701C70B3
:103A000038701C383838383838383838383838381A
:103A10007038301C701C701C701C701C701C701C6A
:103A2000E00EE00EE00EE00EE00EE00EE00EE00E26
:103A3000C007C007C007C007C007C00700000000DC
:103A40000000000000000000000000000000000076
:103A500000000000000000000000001E000F3C807D
:103A60000738800378C003F0E001E0E000C0710097
:103A7000C07300803B00001F00001F00000E00000C
:103A80001F00803B00803B00C07300E0F100E0E0DD
:103A90000070C00178C0033C80071C00071E000FA7
:103AA0000F001E00000000000000000000000000E9
:103AB000000000000000000000000007001E0E00D3
:103AC0000F1C00073C800738C00370C001F0E00104
:103AD000E0E000C07100C07100803B00803F00004A
:103AE0001F00000E00000E00000E00000E00000E71
:103AF00000000E00000E00000E00000E00000E0080
:103B0000000E0000000000000000000000000000A7
:103B10000000000000000000000000FEFF03FEFFA8
:103B200003FEFF0300C00300E00100F0000070008E
:103B3000003800003C00001E00000F00000700805D
:103B40000300C00300E00100F00000700000380036
:103B5000003C00001E00000F0000FFFF07FFFF07F2
:103B6000FFFF070000000000000000000000000050
:103B700000000000000000000000FC00FC00FC0051
:103B80001C001C001C001C001C001C001C001C0055
:103B90001C001C001C001C001C001C001C001C0045
:103BA0001C001C001C001C001C001C001C001C0035
:103BB0001C00FC00FC00FC000000060006000C00DD
:103BC0000C000C001800180018001800300030001D
:103BD0003000600060006000E000C000C000C00075
:103BE00080018001800180030003000000000000CC
:103BF000000000000000000000007E007E007E004B
:103C00007000700070007000700070007000700034
:103C10007000700070007000700070007000700024
:103C20007000700070007000700070007000700014
:103C300070007E007E007E000000C000E001E00118
:103C4000E001F00330033807380718061C0E1C0E7D
:103C50000C0C0E1C00000000000000000000000022
:103C60000000000000000000000000000000000054
:103C70000000000000000000000000000000000044
:103C80000000000000000000000000000000000034
:103C90000000000000000000000000000000000024
:103CA0000000000000000000000000000000000014
:103CB0000000000000000000000000000000000004
:103CC000000000000000000000000000000000FFF5
:103CD000FF07FFFF07FFFF0700001E003C00380042
:103CE0003000600000000000000000000000000044
:103CF00000000000000000000000000000000000C4
:103D000000000000000000000000000000000000B3
:103D100000000000000000000000000000000000A3
:103D200000000000000000000000000000E00F00A4
:103D3000F83F00FC3F001E78000E7000007000008D
:103D40007C00E07F00F87F00FC77001E70000E70A2
:103D5000000E70000E78001E7E00FC7F00FC7700D5
:103D6000F0E3000000000000000000000000000080
:103D700000000000000000000000001C00001C000B
:103D8000001C00001C00001C00001C00001C0F0098
:103D9000DC3F00FC7F00FCF0003CE0003CE0011C4C
:103DA000C0011CC0011CC0011CC0011CC0011CC002
:103DB000013CE0013CE0007CF800FC7F00DC3F00BF
:103DC0001C0F0000000000000000000000000000C8
:103DD00000000000000000000000000000000000E3
:103DE00000000000000000000000000000C00F0004
:103DF000F01F00F83F007C78001C70001EE0000EF1
:103E000000000E00000E00000E00000E00000EE08C
:103E1000001EE0001C70007C7800F83F00F01F00DE
:103E2000C00F0000000000000000000000000000C3
:103E3000000000000000000000000000E00000E0C2
:103E40000000E00000E00000E00000E000C0E3004F
:103E5000F0EF00F8FF003CFC001CF0001EF0000E2C
:103E6000E0000EE0000EE0000EE0000EE0000EE0CC
:103E7000001EF0001CF0007CF800F8FF00F0EF00DE
:103E8000C0E300000000000000000000000000008F
:103E90000000000000000000000000000000000022
:103EA00000000000000000000000000000C007004B
:103EB000F01F00F83F003C78001C70000EE0000E80
:103EC000E000FEFF00FEFF00FEFF000E00000E00FF
:103ED000001E00001CE0007C7800F87F00F03F002E
:103EE000C00F000000000000000000000000000003
:103EF00000000000000000000000E007F003F803ED
:103F0000380038003800FE01FE01FE01380038009C
:103F100038003800380038003800380038003800E1
:103F20003800380038003800380000000000000079
:103F30000000000000000000000000000000000081
:103F400000000000000000000000000000C0E700CA
:103F5000F0EF00F8FF003CFC001CF0001EF0000E2B
:103F6000E0000EE0000EE0000EE0000EE0000EE0CB
:103F7000001EF0001CF0003CF800F8FF00F0EF001D
:103F8000C0E70000E0000EE0000E70003E7800FC8C
:103F90003F00F81F00E007000000001C00001C00AC
:103FA000001C00001C00001C00001C00001C1F0066
:103FB000DC3F00FC7F007CF8003CF0001CE0001CB3
:103FC000E0001CE0001CE0001CE0001CE0001CE025
:103FD000001CE0001CE0001CE0001CE0001CE000F5
:103FE0001CE00000000000000000000000000000D5
:103FF0000000000000000000001C1C1C0000001C51
:104000001C1C1C1C1C1C1C1C1C1C1C1C1C1C1C1CF0
:104010001C000000000000000070707000000070C4
:104020007070707070707070707070707070707090
:1040300070707070707E3E1E00001C001C001C0022
:104040001C001C001C001CF01C781C3C1C1E1C0FBF
:104050009C07DC03FC03FC07BC071C0F1C0E1C1E8A
:104060001C1C1C381C781C701CF000000000000098
:104070000000000000000000001C1C1C1C1C1C1C7C
:104080001C1C1C1C1C1C1C1C1C1C1C1C1C1C1C1C70
:104090001C00000000000000000000000000000004
:1040A0000000000000000000000000000000000010
:1040B000000000001C0F3E00DC3FFF00FCBFFF00C3
:1040C0007CF8E1013CF0C0011C70C0011C70C00113
:1040D0001C70C0011C70C0011C70C0011C70C001AC
:1040E0001C70C0011C70C0011C70C0011C70C0019C
:1040F0001C70C0011C70C0011C70C00100000000D9
:1041000000000000000000000000000000000000AF
:10411000000000000000000000000000000000009F
:10412000000000000000000000000000009C1F00D4
:10413000DC3F00FC7F007CF8003CF0001CE0001C31
:10414000E0001CE0001CE0001CE0001CE0001CE0A3
:10415000001CE0001CE0001CE0001CE0001CE00073
:104160001CE0000000000000000000000000000053
:10417000000000000000000000000000000000003F
:1041800000000000000000000000000000C0070068
:10419000F01F00F83F003C78001C70001EF0000E7D
:1041A000E0000EE0000EE0000EE0000EE0000EE089
:1041B000001EF0001C70003C7800F83F00F01F006B
:1041C000C007000000000000000000000000000028
:1041D00000000000000000000000000000000000DF
:1041E000000000000000000000000000001C1F0094
:1041F000DC3F00DC7F00FCF0003CE0003CE0011C08
:10420000C0011CC0011CC0011CC0011CC0011CC09D
:10421000013CE0003CE0007CF800FC7F00DC3F005B
:104220009C0F001C00001C00001C00001C00001C57
:1042300000001C00001C0000000000000000000046
:1042400000000000000000000000000000C0E300CB
:10425000F0EF00F8EF003CFC001CF0001EF0000E38
:10426000E0000EE0000EE0000EE0000EE0000EE0C8
:10427000001CF0001CF0007CF800F8FF00F0EF00DC
:10428000C0E70000E00000E00000E00000E0000007
:10429000E00000E00000E00000000000000000007E
:1042A0000000000000009C07DC07FC037C003C00D1
:1042B0001C001C001C001C001C001C001C001C001E
:1042C0001C001C001C001C001C0000000000000062
:1042D00000000000000000000000000000000000DE
:1042E00000000000000000000000000000E00700E7
:1042F000F81F00FC3F001E78000E70000E00003E0C
:104300000000FC0700F83F00E07F0000FF0000F025
:10431000000EE0001EE0003CF000FC7F00F83F00D3
:10432000E00F00000000000000000000000000009E
:104330000000000000000000000010001C001C0035
:104340001C001C001C00FF00FF00FF001C001C00E4
:104350001C001C001C001C001C001C001C001C007D
:104360001C001C00FC00F800F00000000000000031
:10437000000000000000000000000000000000003D
:10438000000000000000000000000000001CE00031
:104390001CE0001CE0001CE0001CE0001CE0001C15
:1043A000E0001CE0001CE0001CE0001CE0001CE041
:1043B000001CE0003CF0007CF800F8EF00F0EF009B
:1043C000E0E300000000000000000000000000002A
:1043D00000000000000000000000000000000000DD
:1043E00000000000000007700E300E380E380C1868
:1043F0001C1C1C1C180C380E380E30067007700779
:104400006003E003E003C001C00100000000000001
:10441000000000000000000000000000000000009C
:10442000000000000000000000000000000000008C
:10443000000000000E38E0000E38E0000E7CE000C6
:104440001C7C70001C6C70001C6C700018EE30003E
:1044500038C6380038C6380038C6180070C71D0086
:1044600070831D0070831D0060830D00E0830F00CA
:10447000E0830F00C0010700C0010700000000003A
:10448000000000000000000000000000000000002C
:10449000000000000000000000000000000000001C
:1044A00000000000000007700E381E3C1C1C380E77
:1044B000780F7007F007E003E003F0077007780F4C
:1044C000380E1C1C1E3C0E38077000000000000057
:1044D00000000000000000000000000000000000DC
:1044E00000000000000007700E700E380E381C38F7
:1044F0001C1C1C1C381C380E380E700E7007700700
:10450000E007E003E003C003C001C001C001E00018
:10451000E0007C007C003C00000000000000000087
:10452000000000000000FE7FFE7FFE7F0078003C60
:10453000001E000F8007C003E001F00078003C007F
:104540001E000F00FF7FFF7FFF7F000000000000C4
:1045500000000000000000000000C003E003F003C2
:10456000F00070007000700070007000700070004B
:104570007000780038001E0006001E003800780029
:1045800070007000700070007000700070007000AB
:10459000F000F003E003C0030018181818181818EA
:1045A000181818181818181818181818181818188B
:1045B000181818181818181800001E003E007E0061
:1045C000700070007000700070007000700070006B
:1045D0007000F000E000C0030003C003E000F00042
:1045E000700070007000700070007000700070004B
:1045F00078007E003E001E00000000000000000069
:1046000000000000000000000000000000000000AA
:10461000000000000000000000F80000FC0301FEA4
:10462000870186FF0102FE00007C00000000000000
:10463000000000000000000000000000000000007A
:10464000000000000000000000000000000000006A
:10465000000000000000000000000000000000005A
:104660000000000000000000F0FF1F00100010001C
:1046700010001000100010001000100010001000BA
:1046800010001000100010001000100010001000AA
:10469000100010001000100010001000100010009A
:1046A000100010001000100010001000100010008A
:1046B0001000100010001000F0FF1F0000000000AC
:1046C00000000000000000000000000000000000EA
:1046D000000000000000000000404040404040401A
:1046E00040404141414141404040404040404040C5
:1046F0004040404040404040400502020202020269
:1047000002020202020202020220202020202020B7
:1047100020202002020202020202909090909090CB
:104720001010101010101010101010101010101089
:1047300010101010020202020202888888888888FD
:1047400008080808080808080808080808080808E9
:10475000080808080202020240000000D9460008CA
:10476000804700080000002054000000FC1A0008E8
:10477000D447000854000020C41300000C1B00089C
:104780000000000000127A0000002000000000007D
:104790000000000000020000BC0A002000008000B1
:1047A000BC0C002000000000000200003C0D0020B6
:1047B00000000100380000200000000000000000A0
:1047C00000000000000000000000000001000000E8
:0447D00000000000E5
:04000005080000C12E
:00000001FF
